:020000022000DC
:1060000000000420B18002009D1806009F180600C1
:106010009D1806009D1806009D180600000000004F
:106020000000000000000000000000009D180600B5
:106030009D180600000000009D1806009D1806002F
:10604000A17F02009D18060015840200ED82020067
:10605000FD8202009D180600FD7B02009D180600CF
:106060009D180600F583020005840200818002006D
:106070009D1806009D1806009D1806009D18060034
:106080007D880200918002009D1806009D18060080
:106090009D1806009D1806005D8302009D180600ED
:1060A0009D1806009D1806009D1806009D18060004
:1060B0009D1806009D18060000000000000000006A
:1060C0009D1806009D1806009D1806000D8302000D
:1060D000A18002009D1806009D180600358402006C
:1060E000258402009D1806009D18060035830200D5
:0860F000000000009D180600ED
:1070000040F8044B40F8045B40F8046B40F8047B04
:1070100040F8048B40F8049B40F804AB40F804BBF4
:1070200040F804CB40F804DB6846704781F000412B
:1070300002E000BF83F0004330B54FEA41044FEA5D
:10704000430594EA050F08BF90EA020F1FBF54EAF8
:10705000000C55EA020C7FEA645C7FEA655C00F094
:10706000E2804FEA5454D4EB5555B8BF6D420CDD65
:107070002C4480EA020281EA030382EA000083EAE8
:10708000010180EA020281EA0303362D88BF30BD88
:1070900011F0004F4FEA01314FF4801C4CEA1131DE
:1070A00002D0404261EB410113F0004F4FEA03333D
:1070B0004CEA133302D0524263EB430394EA050FC8
:1070C00000F0A780A4F10104D5F1200E0DDB02FA37
:1070D0000EFC22FA05F2801841F1000103FA0EF2CB
:1070E000801843FA05F359410EE0A5F120050EF191
:1070F000200E012A03FA0EFC28BF4CF0020C43FAC2
:1071000005F3C01851EBE37101F0004507D54FF0CE
:10711000000EDCF1000C7EEB00006EEB0101B1F51E
:10712000801F1BD3B1F5001F0CD349085FEA300064
:107130004FEA3C0C04F101044FEA445212F5800F6F
:1071400080F09A80BCF1004F08BF5FEA500C50F10C
:10715000000041EB045141EA050130BD5FEA4C0CEF
:10716000404141EB0101013C28BFB1F5801FE9D24C
:1071700091F0000F04BF01460020B1FA81F308BF6F
:107180002033A3F10B03B3F120020CDA0C3208DD3B
:1071900002F1140CC2F10C0201FA0CF021FA02F116
:1071A0000CE002F11402D8BFC2F1200C01FA02F186
:1071B00020FA0CFCDCBF41EA0C019040E41AA2BFAB
:1071C00001EB0451294330BD6FEA04041F3C1CDA73
:1071D0000C340EDC04F11404C4F1200220FA04F093
:1071E00001FA02F340EA030021FA04F345EA03013D
:1071F00030BDC4F10C04C4F1200220FA02F001FAFF
:1072000004F340EA0300294630BD21FA04F0294680
:1072100030BD94F0000F83F4801306BF81F4801119
:107220000134013D4EE77FEA645C18BF7FEA655C8C
:1072300029D094EA050F08BF90EA020F05D054EA5E
:10724000000C04BF1946104630BD91EA030F1EBF63
:107250000021002030BD5FEA545C05D14000494167
:1072600028BF41F0004130BD14F580043CBF01F55A
:10727000801130BD01F0004545F0FE4141F4700140
:107280004FF0000030BD7FEA645C1ABF194610461B
:107290007FEA655C1CBF0B46024650EA013406BF1C
:1072A00052EA033591EA030F41F4002130BD00BFDB
:1072B00090F0000F04BF0021704730B54FF4806498
:1072C00004F132044FF000054FF0000150E700BF19
:1072D00090F0000F04BF0021704730B54FF4806478
:1072E00004F1320410F0004548BF40424FF0000165
:1072F0003EE700BF42004FEAE2014FEA31014FEAA8
:1073000002701FBF12F07F4393F07F4F81F06051F6
:10731000704732F07F4208BF704793F07F4F04BF41
:1073200041F40021704730B54FF4607401F000451E
:1073300021F000411CE700BF50EA010208BF70477E
:1073400030B54FF000050AE050EA010208BF70476F
:1073500030B511F0004502D5404261EB41014FF4D8
:10736000806404F132045FEA915C3FF4D8AE4FF0E0
:1073700003025FEADC0C18BF03325FEADC0C18BFC3
:10738000033202EBDC02C2F1200300FA03FC20FA14
:1073900002F001FA03FE40EA0E0021FA02F1144461
:1073A000BDE600BF4FEA4102B2F1E04324BFB3F5AE
:1073B000001CDCF1FE5C0DD901F0004C4FEAC0026C
:1073C0004CEA5070B2F1004F40EB830008BF20F050
:1073D0000100704711F0804F21D113F13872BCBF0A
:1073E00001F00040704741F480114FEA5252C2F15F
:1073F0001802C2F1200C10FA0CF320FA02F018BFA8
:1074000040F001004FEAC1234FEAD32303FA0CFCFA
:1074100040EA0C0023FA02F34FEA4303CCE77FEA89
:10742000625307D150EA01331EBF4FF0FE4040F4D3
:107430004000704701F0004040F0FE4040F4000082
:10744000704700BF80F0004002E000BF81F00041C3
:1074500042001FBF5FEA410392EA030F7FEA226CFA
:107460007FEA236C6AD04FEA1262D2EB1363C1BF8A
:10747000D218414048404140B8BF5B42192B88BFF9
:10748000704710F0004F40F4000020F07F4018BF1C
:10749000404211F0004F41F4000121F07F4118BF3C
:1074A000494292EA030F3FD0A2F1010241FA03FCE4
:1074B00010EB0C00C3F1200301FA03F100F00043CC
:1074C00002D5494260EB4000B0F5000F13D3B0F194
:1074D000807F06D340084FEA310102F10102FE2A03
:1074E00051D2B1F1004F40EBC25008BF20F0010073
:1074F00040EA03007047490040EB0000013A28BF12
:10750000B0F5000FEDD2B0FA80FCACF1080CB2EB94
:107510000C0200FA0CF0AABF00EBC2505242184312
:10752000BCBFD0401843704792F0000F81F40001B7
:1075300006BF80F400000132013BB5E74FEA41038A
:107540007FEA226C18BF7FEA236C21D092EA030FF6
:1075500004D092F0000F08BF0846704790EA010F70
:107560001CBF0020704712F07F4F04D1400028BF9D
:1075700040F00040704712F100723CBF00F500007F
:10758000704700F0004343F0FE4040F400007047B5
:107590007FEA226216BF08467FEA23630146420261
:1075A00006BF5FEA412390EA010F40F48000704774
:1075B0004FF0000304E000BF10F0004348BF40421A
:1075C0005FEA000C08BF704743F0964301464FF056
:1075D00000001CE050EA010208BF70474FF00003B2
:1075E0000AE000BF50EA010208BF704711F00043F3
:1075F00002D5404261EB41015FEA010C02BF8446C3
:107600000146002043F0B64308BFA3F18053A3F521
:107610000003BCFA8CF2083AA3EBC25310DB01FA68
:1076200002FC634400FA02FCC2F12002BCF1004FEC
:1076300020FA02F243EB020008BF20F0010070477D
:1076400002F1200201FA02FCC2F1200250EA4C00D1
:1076500021FA02F243EB020008BF20EADC70704717
:107660007BB972B90029BEBF00204FF0004106E08F
:1076700008BF00281CBF6FF000414FF0FF3000F042
:1076800081B9ADF1080C6DE904CE002909DB002BAE
:107690001ADB02F033F9DDF804E0DDE9022304B07F
:1076A0007047404261EB4101002B1BDB02F026F9E1
:1076B000DDF804E0DDE9022304B0404261EB410162
:1076C000524263EB43037047524263EB430302F0C1
:1076D00015F9DDF804E0DDE9022304B0404261EB76
:1076E00041017047524263EB430302F007F9DDF8B2
:1076F00004E0DDE9022304B0524263EB4303704728
:1077000053B94AB9002908BF00281CBF4FF0FF3108
:107710004FF0FF3000F036B9ADF1080C6DE904CE42
:1077200002F0ECF8DDF804E0DDE9022304B0704774
:1077300070B54FF0FF0C4CF4E06C1CEA11541DBF07
:107740001CEA135594EA0C0F95EA0C0F00F0DEF8D2
:107750002C4481EA030621EA4C5123EA4C5350EAB7
:10776000013518BF52EA033541F4801143F4801308
:1077700038D0A0FB02CE4FF00005E1FB02E506F099
:107780000042E0FB03E54FF00006E1FB03569CF0EE
:10779000000F18BF4EF0010EA4F1FF04B6F5007FF4
:1077A00064F5407404D25FEA4E0E6D4146EB060666
:1077B00042EAC62141EA55514FEAC52040EA5E50EF
:1077C0004FEACE2EB4F1FD0C88BFBCF5E06F1ED899
:1077D000BEF1004F08BF5FEA500E50F1000041EBD0
:1077E000045170BD06F0004646EA010140EA02007D
:1077F00081EA0301B4EB5C04C2BFD4EB0C0541EA9F
:10780000045170BD41F480114FF0000E013C00F3B3
:10781000AB8014F1360FDEBF002001F0004170BDD7
:10782000C4F10004203C35DA0C341BDC04F11404F0
:10783000C4F1200500FA05F320FA04F001FA05F27C
:1078400040EA020001F0004221F0004110EBD37049
:1078500021FA04F642EB06015EEA430E08BF20EA75
:10786000D37070BDC4F10C04C4F1200500FA04F318
:1078700020FA05F001FA04F240EA020001F00041AA
:1078800010EBD37041F100015EEA430E08BF20EA1D
:10789000D37070BDC4F1200500FA05F24EEA020E65
:1078A00020FA04F301FA05F243EA020321FA04F094
:1078B00001F0004121FA04F220EA020000EBD3704B
:1078C0005EEA430E08BF20EAD37070BD94F0000F4B
:1078D0000FD101F00046400041EB010111F4801F7F
:1078E00008BF013CF7D041EA060195F0000F18BF30
:1078F000704703F00046520043EB030313F4801F6C
:1079000008BF013DF7D043EA0603704794EA0C0F25
:107910000CEA135518BF95EA0C0F0CD050EA41063B
:1079200018BF52EA4306D1D181EA030101F00041B8
:107930004FF0000070BD50EA410606BF10461946E0
:1079400052EA430619D094EA0C0F02D150EA0136EC
:1079500013D195EA0C0F05D152EA03361CBF10462D
:1079600019460AD181EA030101F0004141F0FE41CC
:1079700041F470014FF0000070BD41F0FE4141F450
:10798000780170BD704700BF4A0011D212F5001295
:1079900011D20DD56FF47873B3EB62520ED44FEA67
:1079A000C12343F0004343EA505323FA02F07047E7
:1079B0004FF00000704750EA013002D14FF0FF3025
:1079C00070474FF000007047182A2DE9F74F044622
:1079D00027D0202A28D0102A29D000231846C4F8FE
:1079E000002184F8043184F80501204600F0E8F90C
:1079F0000022034694F80551AA4201F1040103F163
:107A0000040317D3DFF8E4C0DFF8E4E000EB8503FC
:107A100094F804210132B5EB820F1DD303B0BDE809
:107A2000F08F0C230620DAE70E230820D7E70A237D
:107A30000420D4E711F8045C03F8045C11F8035C3B
:107A400003F8035C11F8025C03F8025C11F8015CB6
:107A500003F8015C0132CDE794F80521B5FBF2FA99
:107A600002FB1A5913F8041C13F8038C13F8027C58
:107A700013F8016C0192B9F1000F0BD11CF808B09A
:107A80001CF807801CF806701CF801601EF80A102C
:107A90008BEA0101D4F80021202A0CD1B9F1040F9E
:107AA00009D1DFF8489019F8011019F8088019F881
:107AB000077019F80660019AAA1A043310F8229088
:107AC00000EB820281EA090103F8041C517888EA7C
:107AD000010803F8038C91784F4003F8027CD278B8
:107AE000564003F8016C013592E700BFF1AD080084
:107AF000E6AD08002DE9F04F044685B0084600F0D9
:107B00005FF98B46024682462146002039F0B2FEDC
:107B1000231D019304F110030126029325462246FA
:107B2000002312F823103448415C02F8231001337B
:107B3000042BF6D1019B01329342F1D16279637833
:107B40006270627A6271627B6272A27A6373A378F6
:107B5000A270A27BA372A379A271E27BA373E378E4
:107B6000E270E27AE273E279E272E3719BF8043147
:107B7000B34238D0297895F80180AF78EA7881EA65
:107B8000080087EA020380EA030903934AF0E6FF4C
:107B9000484089EA0000287088EA07004AF0DEFFC2
:107BA000039B88EA000889EA080885F801801846DE
:107BB0004AF0D4FF474089EA0707AF7081EA020024
:107BC0004AF0CCFF4240029B89EA020985F8039003
:107BD0000435AB42CED1304652462146013639F00B
:107BE00049FEF6B29AE752462146304605B0BDE856
:107BF000F04F39F03FBE00BFF1AD08002DE9F04F66
:107C000000248BB0CDE90444674B684868490122E1
:107C100025461E6846B1D0F80463164204D01D60A4
:107C20001E680196019E144304338B424FEA4202C0
:107C3000EFD15E4BD3F87C218AB10022C3F87C21BE
:107C4000D3F87C310293029B4FF0A04344F00044F0
:107C5000D3F810350493574BD3F810350593E3B29E
:107C6000D3B1554F01260025344210D0AB0003F1AB
:107C7000804303F5C043D3F81005D3F8101557F827
:107C8000253023B1C1F30141C0F3052098470135E8
:107C9000082D4FEA4606E7D1002C80F2818008AD1E
:107CA000002308936B60444F4FF0FF33069300248A
:107CB000424E0793A14616F9013F5A1C51D0C3F317
:107CC000C20003F007025FFA83FA03F03F0B00F1F2
:107CD00028030DEB030111F8103CD340DB0740D51E
:107CE00007EB0B034FEA9A1A93F9283057F82380D1
:107CF000B8F1000F0FD1BAF1030F32D115F800C05F
:107D0000012303FA02FE4CEA0E0C05F800C005E060
:107D10004FF00109CFE7BAF1030FEFD003A8CDF878
:107D20000CB029F075F8039B11F8181C03F5E07CE2
:107D300021FA02F250F82C00D307C0F3014028D5F5
:107D400002280ED1BAF1030F05D15146584646F02C
:107D5000D6FE0134E4B2B8F1000F02D051465846C5
:107D6000C047B9F1000FD3D0D4B14FF0A04304996C
:107D7000D3F8102503F540739142D3F8103502D1A2
:107D8000059999420CD00492089ACDE90532099BD5
:107D90008DE70328E5D1BAF1030FDCD10221D5E745
:107DA0000BB0BDE8F08F00BF0061004000600040F4
:107DB0002061004000030050CC45012023460120F3
:107DC000D0F80031103B102B07D8054A22FA03F3F4
:107DD00013F0010F08BF002070470020704700BF5C
:107DE000010101002DE9F04F04468DB00846FFF770
:107DF000E7FF0D4603900246214695F8040139F04D
:107E000039FD95F80431013BDBB20093231D099342
:107E100004F110030A93627A637B6273627962727F
:107E200062786271A27A6370A378A270A27BA37257
:107E3000A379A271E279A373E378E270E27AE27146
:107E4000E27BE272E37325462246002312F82310F8
:107E50005248415C02F823100133042BF6D1099BF0
:107E600001329342F1D1039A0098214639F002FD84
:107E7000009B002B00F08E8095F800806B780193BA
:107E80004046AB7802934AF069FE04904AF066FEE1
:107E900005904AF063FE8246019895F803B04AF0D7
:107EA0005DFE02464AF05AFE06904AF057FE07462B
:107EB00002984AF053FE0B904AF050FE07904AF0A9
:107EC0004DFE064658464AF049FE08904AF046FEE6
:107ED00081464AF043FEDDE9043183EA010C8AEA77
:107EE0000C0C079B029982EA0C0C87EA0C0C83EAC3
:107EF0000C0C86EA0C0C019B80EA0C0C83EA0C0C3F
:107F0000029B83EA0C0C069B8AEA02025A400B9BF6
:107F10007A405A40724089EA0202424088EA0202EC
:107F20004A408BEA02026A70059A82EA0A027A40A3
:107F30005340079A5340089A734053404340019A74
:107F400088EA030353408BEA0C0C8BEA030B85F899
:107F500000C085F802B0049B069A83EA0A035340E6
:107F60005F40089B7E40734089EA030980EA09006C
:107F7000019B88EA000883EA080881EA0803EB709D
:107F80000A9B0435AB427FF477AF009B013BDBB229
:107F9000009340E70DB0BDE8F08F00BFE6AC0800ED
:107FA00010B54FF08043D3F80443620707D54FF470
:107FB000847046F0EEFD10B11E4B1B689847A30677
:107FC00008D54FF48A7046F0E4FD18B11A4B002032
:107FD0001B689847600608D54FF48C7046F0D9FDB1
:107FE00018B1154B01201B689847210608D54FF49E
:107FF0008E7046F0CEFD18B1104B00201B689847DC
:10800000E20508D54FF4907046F0C3FD18B10B4B54
:1080100001201B689847A3050AD54FF4927046F0DB
:10802000B8FD28B1054BBDE810401B680220184779
:1080300010BD00BF5C47012060470120644701205C
:108040009FED0B7ADFED0B6AE0EE076A9FED0A7A8F
:10805000A6EE807ADFED096A27EE007AF0EE407A2C
:10806000B7EE000AA7EEA60A87EE000A704700BF27
:108070006BD30DBCBA132FBD75AA2A3EAEE534BF33
:1080800002480322002116F0F9B800BF00B00040FA
:1080900002480422012116F0F1B800BF001001408F
:1080A00002480422022116F0E9B800BF0040024055
:1080B00008B5814B8148DA1C121AC11E22F0030256
:1080C000994288BF00227E493FF08EFC7D4B7E485E
:1080D000DA1C121AC11E22F00302994288BF002244
:1080E00000213FF0C1FC4FF08053D3F83021082A23
:1080F0004ED14FF080420021C2F80C11C2F810118D
:10810000C2F8381502F54042D3F80414C2F820151D
:10811000D3F80814C2F82415D3F80C14C2F82815A3
:10812000D3F81014C2F82C15D3F81414C2F8301573
:10813000D3F81814C2F83415D3F81C14C2F840153B
:10814000D3F82014C2F84415D3F82414C2F8481503
:10815000D3F82814C2F84C15D3F82C14C2F85015D3
:10816000D3F83014C2F85415D3F83414C2F860159B
:10817000D3F83814C2F86415D3F83C14C2F8681563
:10818000D3F84014C2F86C15D3F84434C2F87035F3
:108190003DF050FA18B14D4B4D4AC3F88C263DF0D6
:1081A00049FA18B14B4BFB22C3F818253DF042FAAF
:1081B00058B14FF080424FF08051D2F8E43ED1F8F0
:1081C000581261F30303C2F8E43E3DF033FA20B1E4
:1081D000414B4FF40072C3F840264FF08053D3F860
:1081E0003031082B09D14FF08043D3F80024D10758
:1081F00044BF6FF00102C3F80024384AD2F8883037
:1082000043F47003C2F88830BFF34F8FBFF36F8F12
:108210004FF01023D3F80C22D2071DD5304B01228A
:10822000C3F80425D3F80024002AFBD04FF0102215
:10823000D2F80C3223F00103C2F80C32284BD3F8E9
:108240000024002AFBD00022C3F80425D3F8002420
:10825000002AFBD000F05CFBD3F80022002A03DBED
:10826000D3F80432002B22DA1D4B0122C3F8042577
:10827000D3F80024002AFBD04FF010221221C2F8BC
:108280000012D3F80024002AFBD04FF01023122252
:10829000C3F80422124BD3F80024002AFBD000229A
:1082A000C3F80425D3F80024002AFBD0D2E70D4BF5
:1082B0000D4A1A6031F0AEFA0C03012000000120D3
:1082C000D0B70800A8510120100301200050004041
:1082D0004881030000F000400090024000ED00E003
:1082E00000E00140000001200090D0030149024855
:1082F00035F052B8904601200030004002494FF05E
:10830000402035F049B800BFC446012008B50748F1
:10831000D0F8183143B14FF48C7146F0BEFBBDE884
:10832000084003483EF057BB08BD00BF0030024084
:108330003046012008B50748D0F8183143B14FF452
:108340008C7146F0AAFBBDE8084003483EF043BBF1
:1083500008BD00BF00F0024054460120F7B5204C94
:10836000022501A847F0BBFF052813D11D4C1E4E66
:108370004FF40C750DF102012046ADF8025047F0A4
:108380003AFF08B30C2803D11849194841F031F8D5
:1083900003B0F0BD019B032B14D004D8022BE0D115
:1083A00000232370DDE7A3F10902022AD9D80A2BA2
:1083B00006D0092B14BF0120022034F0AFFED0E715
:1083C0000020FAE72570CCE7D6F8B030002BD1D0EA
:1083D0001F68D3E90112204690473B46F6E700BFED
:1083E0008D5101209C4301206C47012048700700FB
:1083F000009A0800014902483EF09BBE78460120E1
:1084000000900040014902483EF093BE844601209E
:1084100000A000400149024849F058BEF84601203A
:10842000002000400149024849F050BE1C4701208D
:10843000008002402DE9F04FBF4BC04AD3F8001333
:10844000002385B01C4601201D4621FA03F6F607DD
:108450000BD552F8236046B100FA03F6344342F8D4
:108460002350BFF36F8FBFF34F8F0133192BECD124
:10847000E30738D5B04B0122C3F81425C3F8102503
:1084800000221546930003F1804303F51C330132AB
:10849000082A5D609D62F5D1A74B5D629D64C3F8BB
:1084A0005851D3F80024D3F800140A43C3F8002429
:1084B000D3F80023C3F80823A14AC3F80423A14B2F
:1084C0004FF49272002118463FF0CEFA4022028308
:1084D00002814FF48073012101A8ADF804308DF8BA
:1084E00008500EF0EDFF14F4006F964D08D0924B3B
:1084F000D3F8A8369BB2A5F81631012385F81C31B4
:10850000A70204F4800635D58B4AD2F8143513F44B
:10851000807308D01EB1D2F80034D80702D40820E6
:1085200038F094FD0123844AD2F81015C90540F1B2
:10853000558195F81C318BB1002385F81C31B5F8B5
:1085400016319BB24FF4E06203930121882301A806
:10855000ADF80420ADF808300EF0B2FF764B4FF4C2
:108560004072D3F820350293012101A8ADF8042010
:108570000EF0A6FF7EB3704BD3F8006440F2017298
:108580003240C3F80024F20509D50121C3F82C15A7
:1085900001A84FF48063ADF804300EF091FF73052D
:1085A0000FD5654B0122C3F808259A65D3F800233F
:1085B00012F4001208BFC3F854214FF40012C3F89C
:1085C0000423B70507D54FF4A063012101A8ADF836
:1085D00004300EF075FF260237D5574BD3F880E4F0
:1085E000D3F88424D3F88814D3F88C74D3F8906427
:1085F000D3F894045FFA81FCD3F89814D3F89C3430
:108600001EF07F0F5FFA8EF8D2B2FFB2F6B2C0B2A0
:10861000C9B2DBB201D1052A17D04FF4C06E8DF874
:108620000D008DF80E1001A80121ADF804E08DF8C1
:1086300008808DF809208DF80AC08DF80B708DF830
:108640000C608DF80F300EF03BFF3F4B234033B1F1
:10865000BFF35B8F3D4B00221A70BFF35B8F394F26
:10866000DFF8D4A00026B8464FF0140BB14606F14F
:108670000C0324FA03F3D80726D50BFB06A3D8F87E
:108680000020D3F8083705EB461012FA83F2C8F839
:108690000020B0F806C099B263449BB2082E4FEA9E
:1086A0004612C38000F0A780B8F808308B4240F033
:1086B000A280C388B8F804109BB2994240F29B8014
:1086C00016B9234810F0B0FB0136092E08F1200836
:1086D000CDD1204B2340002B00F09780164BD3F8D0
:1086E0006C84C3F86C84BFF36F8FBFF34F8F14F4A7
:1086F00080641CBFD3F88044D3F88064DFF844A0C2
:108700001DBF86F08006C4F3C014C6F3C01626460B
:108710004FF000094FF4E06B28FA09F1CA0703D4BF
:10872000B9F1000F34D19CB3034B142202FB093181
:10873000DAF8103010E000BF007002400071024013
:108740000514C001FC1A0120FCFB1F001C1C0120A9
:108750004C70024000040001D1F8081605EB491CDA
:1087600053FA81F3CAF81030BCF816E01FFA8EFEF7
:108770005EFA81F189B2ACF81610BCF81610BAF89E
:1087800014E089B28E455FFA89F05DD938F03EFC7D
:1087900009F10109B9F1080F0AF1200ABCD100243E
:1087A0004FF0010904F1100328FA03F3DB0701D4A9
:1087B00074B96EB105EB44126301D17A002955D02A
:1087C000D288B98892B2914250D9E0B238F03EFCDA
:1087D0000134082C07F12007E4D116E0002B7FF4C8
:1087E000BDAE95F82131002B7FF4B8AE4FF40013E5
:1087F000C2F80833B2E6AB18DA7A82B94FF0E02358
:10880000D3F8F03DD90700D500BE1A481A4B0360D3
:108810000023436005B0BDE8F04F03F033BFDA88B2
:10882000A8F8042083F80B90DB888DF808609BB2D1
:108830004FF4E062012101A8ADF8042003938DF804
:1088400009900EF03DFE3FE7BCF81610ADF804B0FD
:1088500089B260F07F00039100218DF808008DF847
:10886000091001A801210EF02BFE91E72B4483F89B
:108870000A90ADE7CC4B01208523070010B5074CCB
:10888000D4F800314BB1064B5B68984720464FF453
:108890008071BDE8104046F000B910BD00000140F5
:1088A0004047012000280CDB4309064900F01F0067
:1088B00020330122824041F82320BFF34F8FBFF3C2
:1088C0006F8F704700E100E04309064900F01F0088
:1088D00020330122824041F82320BFF34F8FBFF3A2
:1088E0006F8F704700E100E00028ACBF00F16040EE
:1088F000064B4FEA4111ACBF00F5614000F00F009C
:10890000C9B2B4BF195480F80013704714ED00E0E9
:10891000BFF34F8F0549064BCA6802F4E062134368
:10892000CB60BFF34F8F00BFFDE700BF00ED00E05D
:108930000400FA05014B1868704700BF540001207D
:1089400007EE900AF5EEC07AF1EE10FA01D400F0CD
:108950000BB8F1EE677A08B517EE900A00F004F84C
:10896000404261EB410108BDD0B5FEF7C3FC0C4BA2
:10897000002206460F46FEF7DBFEFFF705F8044629
:10898000FEF796FC074B0022FEF7D2FE02460B468E
:1089900030463946FEF74EFBFEF7F6FF2146D0BDC6
:1089A0000000F03D0000F04170B510EE105A25F0C7
:1089B00000440123B4F1FF4FB0EE403A0646036095
:1089C00004D360EE003AB0EE630A70BD34B9DFED57
:1089D000CD7AB7EE007AC7EE273AF4E7B4F1E45F58
:1089E0000BD2002DBEBF4FF0FF330360B1EE400A43
:1089F00017F022FCF1EE403AE5E7002D80F2C88244
:108A0000B4F1964FE3D2B4F17A5FDFEDBF5A7AD278
:108A1000DFEDBC0A20EE250A002000F029FEF0EE72
:108A2000403AF5EE403AF1EE10FAD0D023EE230AA8
:108A3000B0EEC00A85EE800A17F0FEFBF5EEC03AF4
:108A4000F1EE10FA4CBF4FF0FF330123B4F17E5F1B
:108A5000F0EE402A336000F09582B4F1804F00F0D0
:108A60009182B1EE433A6B0000F1D881A74B9C4252
:108A700000F2F780B0EE430A17F0DEFBA44B9C42F5
:108A8000F1EE403A40F29D80F7EE006A76EEC36A5E
:108A900066EEA67A9FED9F6A9FED9F7ADFED9F5A63
:108AA000A7EE867A9FED9E6AA7EE276A9FED9D7AD4
:108AB000A6EE277A9FED9C6AA7EE276A9FED9B7A28
:108AC000A6EE277A9FED9A6AA7EEA56ADFED995A7E
:108AD000E6EE275A9FED986AA5EEA76ADFED975A52
:108AE000E6EE275A9FED966AA5EEA76A27EE267A4C
:108AF000A6EE277AB6EE006AF0EE477AE6EEC67A80
:108B000077EEA33AFBE1B1EE407AB0EE470A12F0FD
:108B10008FFEB4EE407AF1EE10FA19D0F6EE007A3C
:108B200027EE277AB0EE470A12F082FE37EE400AAF
:108B300030EE000AF0EE407AFEEECF7A17EE903A71
:108B4000062B39D8DFE803F02312121F1F2B2B004E
:108B5000DFED7C7A77EEC37A17EE903A03F00103EB
:108B600007EE903A9B00B8EEE70AE9E7F6EE007AE6
:108B700037EEC00ADFED630A20EE250A00F03AFB6B
:108B8000F1EE403A4DE7F7EE007A37EEC00ADFED3E
:108B90005D0A20EE250A002000F06AFDF0E7F7EEFE
:108BA000087A30EE670ADFED570A20EE250A00F05A
:108BB00021FBB1EE400AE3E7F0EE007A30EE670AFF
:108BC000E5E7614B9C4266D99FED607A33EE477AC8
:108BD00067EE074A9FED5E6ADFED5E6ADFED5E5A83
:108BE0009FED5E5A64EE877AE7EE866A9FED5C6AD7
:108BF000A6EEA76ADFED5B6AE6EE276A9FED5A6A8A
:108C0000A6EEA76ADFED596AE7EEA65ADFED586ACD
:108C1000E5EEA76ADFED575AE6EEA75ADFED566A92
:108C2000E5EEA76ADFED555AA7EEA55ADFED545AD7
:108C3000E5EE275A9FED535AA5EEA75ADFED525A9B
:108C4000E5EE275AE5EE876A9FED507AA6EEE77AC1
:108C5000F0EE477AD4EE867A9FED4D7A77EEC77ABA
:108C60004EE74C4B9C4206D9F0EE006A76EEC36AA2
:108C7000DFED243A0CE7484B9C4206D99FED477A3A
:108C8000DFED203A33EE477AA2E7F7EE007A33EED3
:108C9000673ADFED1C3A9FED427ADFED427ADFED75
:108CA000426AE3EE077A9FED417AA7EE837ADFED21
:108CB000407AE7EE037A9FED3F7AA7EE837ADFED05
:108CC000497AE7EE037A9FED3C7AE3EE076A9FED7F
:108CD0003B7AA6EE837ADFED3A6AE7EE036A9FED10
:108CE000397AA6EE837AF7EE006AE7EE036A67EE5A
:108CF000837A87EEA67AFEEE006AF0EE477AE3EE1C
:108D0000267AFDE600000000DB0F49406666663FFC
:108D10001F4A3B3FA283D33767976739752C3C388E
:108D2000A1549C3A7E02F23B01F0893D3F239E3DD7
:108D30004584E23834B6053AC66E3D3B1599A83CE9
:108D4000661AA53E0000004B07336D3E0C5BEC3EFF
:108D50006B7BA53976F4B7BA67F8663A85300DBAF9
:108D600007E7C73B474D06BD5EB9F73E27F9A3B9F4
:108D7000FE7771BB3D37933C3C2117BEF7E9AF3915
:108D80009916143BFEFC28BC155A843D521CE63152
:108D9000CDCDF83D17A6DD3F1FA69D3FC316BB3FB7
:108DA0005E3C5B3C78756A3EAF72D53DB24B7A3F14
:108DB000E73ABA3FF400223FDBD5523BDFEF443FB6
:108DC0002D390840BE2E1D4067FF0538B435F13AF5
:108DD000BDD7F536E440DA3CE6DC153E7ACCA63E5B
:108DE0005A245C3E3F239EBDD6EE4B3A54BF983C7E
:108DF0006E0F303EC5D0383F3B2DB23FE8C4D5BAE8
:108E0000D23D5B3A1D7FD63E5C061CBAFD0C503A43
:108E1000610B36BBABAAAA3D00000000B4F1824F43
:108E2000F7EE003A7DD2FDEEC35A1FED197A5FEDE1
:108E3000196A1FED196AF8EEE57A15EE903A73EEAD
:108E4000677A033BE7EE876A1FED1E7AA6EEA77AE4
:108E50005FED1F6AE7EE276A1FED207AA6EEA77A7C
:108E60005FED216AE7EE276A1FED227AA6EEA77A68
:108E70005FED236AE7EE866A1FED246AA6EEA76A15
:108E80005FED256AE6EE276A1FED266AA6EEA76A61
:108E90005FED276AE6EE276AB0EE636AA6EEA76A80
:108EA00027EE277AC7EE063AB6EE007AE7EE873A63
:108EB000042B24D8DFE803F0322F2C290300B1EE75
:108EC000087A37EE877AF1EE046A77EEA66A66EEE4
:108ED000876AB1EE007A37EE877A27EE267AB0EE0F
:108EE000080A37EE800A20EE070AB0EE007A77EE25
:108EF000877A27EE800A17F09FF973EE803A002DEB
:108F0000BFF661AD72EEE33A5DE5B7EE007ADAE7FF
:108F1000F7EE006ADDE7B7EE007AE0E7B7EE000AA9
:108F2000E3E7B0EE430A17F087F9B4F1B94F30EE3A
:108F3000630A24D283EE837A1FED506A5FED506A94
:108F40005FED503A67EE077AE7EE866A1FED526AE8
:108F5000A6EEA76A5FED536AE6EE276A1FED546A34
:108F6000A6EEA76A5FED556AE6EE276AF6EE007A8E
:108F7000E6EE873A73EE677AE7EE803ABFE763EE94
:108F8000003ABCE75FED5C3ABCE75FED5D3A1AE59D
:108F9000B4F17E5FF9D0B4F1804FF6D05FED622A74
:108FA00061E500BFF0B510EE105A854A25F0004388
:108FB000934285B0044605D8002380ED000A436043
:108FC000002022E07F4A93423AD825F00043002D4A
:108FD000DFED7D7A7D4A23F00F0318DD934230EEFA
:108FE000670A09BFDFED7A7A9FED7A7A9FED7A7A88
:108FF00030EE670A70EE477A30EE670AC0ED007A0D
:1090000030EE470A80ED010A012005B0F0BD934221
:1090100030EE270A09BFDFED6E7A9FED6E7A9FED85
:109020006E7A30EE270A70EE077A30EE670AC0EDEE
:10903000007A30EE070A80ED010A4FF0FF30E4E7D6
:10904000664A934272D89FED667AB0EEC00AF6EE99
:10905000007AE0EE077AFDEEE77AB8EEE77A17EEEF
:10906000900ADFED597AA7EE670A1F28DFED597ADB
:1090700067EE277AB1EE476A70EE676A16EE906A7D
:1090800009DC5849471E25F0004251F8271022F00C
:10909000FF028A4206D1C6F3C751DA15C1EBD3539A
:1090A000082B14DC266094ED007A30EE470A002D80
:1090B00030EE670A84ED010AA7DAB1EE477AB1EE25
:1090C000400A84ED007A84ED010A40429DE7DFED1D
:1090D000405AF0EE406AE6EE256A70EE667AE6EEF9
:1090E000257ADFED3D5AD7EE257A76EEE75A15EE72
:1090F000901AC1F3C753D31A192B04DCC4ED005ADC
:10910000B0EE660ACFE7DFED385AB0EE660AA6EE9B
:10911000250A76EEC07ADFED356AE6EE257AD7EEDF
:10912000267A30EE677A84ED007ABCE7B3F1FF4F20
:1091300006D330EE400A80ED010A80ED000A3FE7D9
:10914000DA15863AA3EBC25307EE903ABDEEE77A02
:10915000DFED276AB8EEC77A77EEC77A8DED017A30
:1091600067EEA67ABDEEE77AB8EEC77A77EEC77AF1
:109170008DED027A67EEA67AF5EE407AF1EE10FAFE
:10918000CDED037A1AD1B5EE407AF1EE10FA0CBFAC
:1091900001230223214601A800F084F8002DBFF628
:1091A00034AFD4ED007AF1EE677AC4ED007AD4EDF5
:1091B000017AF1EE677AC4ED017A86E70323E9E7E5
:1091C000D80F493FE3CB1640800FC93FD00FC93FAE
:1091D000004435374344353708A3852E800F494373
:1091E00084F9223FF4B0080000A3852E32318D248B
:1091F0000000804310EE103A23F00043B3F1485FC3
:10920000F0EE406AB7EE000A04D2FDEEE67A17EE01
:10921000902A42B326EEA67ADFED1A7A9FED1A6AFB
:109220001A4AA7EE276A9342DFED197AE6EE077A2B
:109230009FED186AA7EE876ADFED177AE6EE077AE8
:109240009FED166AA7EE876A60EEE60A26EE076AC9
:10925000F6EE007AE7EE060A67EE277A04D877EE94
:10926000E07A30EE670A70470D4A93429ABF03F1E5
:109270007F4307EE103AB5EE027A30EE470A77EEFA
:10928000C77AECE74ED747ADF6740F319999993EFE
:109290007CF293B4010DD037610BB6BAABAA2A3D6C
:1092A0000000483F2DE9F04F2DED048BD7B09B46D1
:1092B0000291D11E48BF111DC9104D1C8146581E78
:1092C000EB0003930C1A1AAF0BF1090C9FEDC47A53
:1092D000C44B9246A2EBC50504EB0C0E3E46002C97
:1092E000A4BF1A5D07EE902A04F10104ACBFF8EEAA
:1092F000677AF0EE477A7445E7EC017AEFD109EB33
:109300008B0306EB8B0601930DF5847EDFEDB47ABB
:1093100037464C46F4EC016A019B37ED017A9C42DA
:10932000E6EE877AF6D101308445EEEC017A06F15B
:109330000406EBD1AB48DFEDAC8A9FEDAC9A0B187D
:109340000924049356AB03EB840111ED140A42ABDC
:1093500006A94FEA840803EB84000F462646002E38
:1093600047DC284605912EF077FEB0EE408AB4EE39
:10937000000A28EE000A12F05BFAF2EE007AA0EE84
:10938000678A002D0599FDEEC87A17EE907AF8EEFF
:10939000E77A38EE678A3EDD04F1FF3C06ABC5F1A3
:1093A000080E53F82C6046FA0EF0074400FA0EF04F
:1093B000361AC5F1070043F82C600641002E39DD4E
:1093C0004FF0000E01377046744557DC002D03DD69
:1093D000012D62D0022D6AD0022E2BD1B7EE000AE9
:1093E00030EE488A30B328462EF036FE38EE408AFA
:1093F00020E060EE287A013EFDEEE77AF8EEE77AAB
:10940000A7EEC90ABDEEC00AA7EC010A30ED010AB9
:1094100037EE800AA3E705D1601E06AB53F8206043
:109420003612CBE7F6EE007AB4EEE78AF1EE10FAE8
:1094300022DA0026B5EE408AF1EE10FA40F0A28062
:10944000601E002308283ADC002B59D10FA8012107
:1094500050F8046DCEB308F5AC730DEB030804EBC4
:109460000B001AAB661CA8F14C0803EB80002144EA
:109470008E422CDD0C4665E70226A1E70B6848B951
:109480001BB1C3F580730B6001230EF1010E043193
:10949000184699E7C3F1FF03F5E704F1FF3C06AB7B
:1094A00053F82C1001F07F0143F82C1094E704F1DD
:1094B000FF3C06AB53F82C1001F03F01F4E706AA7D
:1094C00052F8201001380B43BCE70131C0E7049B80
:1094D0009B5D07EE903AF8EE677A4C46E0EC017A35
:1094E000DFED3F7A0746F4EC016A019B37ED017A24
:1094F0009C42E6EE877AF6D1E8EC017A0136B7E7CE
:10950000013C06AB083D53F82430002BF8D0284628
:10951000B7EE000A2EF0A0FD631C42AA9FED327A3E
:109520004FEA830E02EB83022346002B60DA2EA85B
:1095300023460246002B80F282809FED297A02EBBF
:109540000E032246002A80F28080002E00F08380E5
:10955000F1EE477A029BC3ED007ADDED2E7A77EECD
:10956000C77A2FAA01239C4278DA0EB1F1EE677A0E
:10957000029B07F00700C3ED017A57B0BDEC048BE6
:10958000BDE8F08F039BB0EE480AA3EB0A002EF073
:1095900063FD9FED167AB4EEC70AF1EE10FA19DBFF
:1095A000DFED117A60EE277A06AAFDEEE77A08353C
:1095B000F8EEE77AA7EEC70AFDEEE77ABDEEC00A3D
:1095C00010EE103A42F8243017EE903A013442F887
:1095D00024309CE7BDEEC00A06AA10EE103AF6E76A
:1095E000000000002CB008000000803B0000804319
:1095F00006A951F82310019107EE901AF8EEE77AC8
:10960000013B67EE807A20EE070A62ED017A8CE773
:1096100042A9DFF858C0DFED147A01EB8305002181
:10962000FCEC016AB5EC017A01310A29E6EE877A91
:1096300001D04145F4DDE0EC017A013B7AE7B4EB7F
:109640000308E5D5DFED087AF5E773ED017A013A15
:1096500037EE277A76E7F0EE477A7BE7B2EC017ACD
:10966000013377EE877A7EE700000000A0B608009D
:1096700010EE103A23F00043B3F1485F04D2FDEE40
:10968000C07A17EE903A5BB320EE007ADFED157AE0
:109690009FED156AA7EE276ADFED147AE6EE077AEA
:1096A0009FED136AA7EE876ADFED127A60EE076A14
:1096B000E6EE077A30B99FED106AA7EE276AA6EEAC
:1096C000260A704767EEE67AB6EE006AE0EE867A22
:1096D000D7EE870ADFED097AE6EEA70A30EE600AD8
:1096E000704700BFD3C92E2F342FD7B21BEF3836A7
:1096F000010D50B98988083CABAA2ABEABAA2A3E04
:1097000010EE103A23F00042B2F1465FF0EE407ADC
:1097100014D2BDEEC07A17EE101A29BB431C1343B6
:1097200006D1F0EEC07AB7EE007A87EE270A7047CE
:10973000012800F09A80BFEE007AF6E74B498A4292
:1097400012D3002B9FED4A7AB8BFF1EE407A37EE84
:10975000677ADFED487AB8BFF1EE600A77EEE07A1B
:10976000DFED450A77EE877A67EEA76ADFED435AA9
:109770009FED436A9FED435A3C4926EEA67A8A4202
:10978000A7EE256ADFED405AE6EE075A9FED3F6AE5
:10979000A5EE876ADFED3E5AE6EE075A9FED3D6A79
:1097A000A5EE876ADFED3C5AE7EE055A9FED3B5A7E
:1097B000A5EE875ADFED3A5AE5EE075A9FED395A82
:1097C000A5EE875ADFED385AE5EE075AB0EE467A35
:1097D000A5EEA67A27EEA65AB0EE606AA7EE056A55
:1097E0009FED327AE6EE260AE5EE070A37EEA00A8A
:1097F0001DD307EE100AB8EEC77A60EE005A30EEBD
:10980000070A9B1785EE806A03F00203C3F1010388
:1098100006EE903A36EE606AF8EEE66A77EEC67AC1
:10982000B0EE006AA7EEC67A26EE870A70470128D6
:109830001BD01F4B10EE102A1A4006EE902A76EE2F
:10984000E77A70EEE70AFFEE007A87EE807AF7EEAD
:10985000007A17EE102A134000EE103AE6EE807AF6
:10986000E0EE807AA7EE870A7047704740A12C3F50
:10987000DA0F493F68212233000000005FAE9BB73A
:1098800045F4A3388453D937C8261A3A16696B3B76
:10989000A427B33C8988083E7AC09538B937813906
:1098A00048DEBE3A1F37113CD10D5D3DABAAAA3E42
:1098B00000F0FFFF42084B0802F0553203F0553329
:1098C000801AC91A4FEA900C8A0800F033330CF062
:1098D000333C01F0333002F033326344104403EB85
:1098E000131300EB101003F00F3300F00F30184487
:1098F00000EB002000EB0040000E70472DE9F04720
:10990000089D0E4604460F46002B4AD194468C45CE
:10991000B2FA82F260D942B1C2F12003974020FA34
:1099200003F30CFA02FC1F4394404FEA1C4E1FFA4B
:109930008CF6B7FBFEF1230C0EFB117743EA0743CD
:1099400001FB06F098420AD91CEB030301F1FF3733
:1099500080F01581984240F21281023963441B1A4B
:10996000A4B2B3FBFEF00EFB103344EA034400FB49
:1099700006F6A6420AD91CEB040400F1FF3380F07E
:109980000081A64240F2FD806444023840EA014072
:10999000A41B00211DB1D4400023C5E90043BDE84C
:1099A000F0878B4205D90DB1C5E9000100210846B9
:1099B000F5E7B3FA83F1002946D1B34202D38242DC
:1099C00000F2F580841A66EB030201201746002D91
:1099D000E5D0C5E90047E2E7002A40F09380A1EB1B
:1099E0000C034FEA1C471FFA8CFE0121B3FBF7F66C
:1099F00007FB1630230C43EA00430EFB06F09842A7
:109A000008D91CEB030306F1FF3802D2984200F29A
:109A1000D08046461B1AA4B2B3FBF7F007FB103305
:109A200044EA03440EFB00FEA64508D91CEB0404DF
:109A300000F1FF3302D2A64500F2B6801846A4EB2F
:109A40000E0440EA0640A5E7C1F120078B4022FA48
:109A500007FC4CEA030C06FA01FE20FA07F426FA8A
:109A600007F344EA0E0400FA01F84FEA1C404FEAFB
:109A70001449B3FBF0FE1FFA8CF600FB1E3349EAD3
:109A800003430EFB06F9994502FA01F20BD91CEBD0
:109A900003030EF1FF3A80F08580994540F2828001
:109AA000AEF1020E6344A3EB0909A4B2B9FBF0F3D3
:109AB00000FB139944EA094403FB06F6A64208D9C1
:109AC0001CEB040403F1FF3068D2A64266D9023BC6
:109AD000644443EA0E40A41BA0FB02E6B442734672
:109AE000B14652D34FD05DB1B8EB030264EB090429
:109AF00004FA07F722FA01F31F43CC40C5E90074CA
:109B000000214CE7C2F1200120FA01F30CFA02FC1B
:109B100026FA01F1964033434FEA1C471FFA8CFEA8
:109B2000B1FBF7F007FB1016190C41EA064100FBE8
:109B30000EF68E4204FA02F408D91CEB010100F182
:109B4000FF382DD28E422BD902386144891B9BB23B
:109B5000B1FBF7F607FB161143EA014306FB0EF1D2
:109B6000994208D91CEB030306F1FF3814D299423D
:109B700012D9023E63445B1A46EA004136E7394691
:109B8000EDE6184602E7F045ADD2BEEB020366EB08
:109B90000C060138B146A6E74646ECE7034698E7CF
:109BA0004046D3E7D6467EE76444023847E7084696
:109BB0000DE7023E63442DE72DE9F04F89B00546DD
:109BC0009DF8487016465FFA81FA1C46002B36D085
:109BD00043681A791B680621C3F800151D4B342110
:109BE00001FB023387F00107022283F82D207A015E
:109BF000194F4FF0000BB4F5806FA14603A928BFA1
:109C00004FF480692846CDE9049BCDE9066B8DF8B9
:109C10000CB08DF80DA0019200F0F8FCB84280461F
:109C200004D1B4EB0904019A4E44E4D1686827F0EA
:109C300063FC404609B0BDE8F04F33F08FBB51469E
:109C400008F088FE00280CBF1320002009B0BDE8F2
:109C5000F08F00BF904601200000AD0B064A0023A4
:109C600052F8041B814201D1184670470133082B7A
:109C7000F6D14FF0FF307047083F01200C4B1878A9
:109C800001280DD10B4B1B78FF2B0BD10A4B186809
:109C9000C20708D4C30308D4C0F300508000704743
:109CA0000228F3D17047052070470120FAE700BF72
:109CB000CC510120D4510120704B01202DE9F041FD
:109CC000094F05460E4600244FF6FF7837F814007A
:109CD000404503D03246294646F0E5FA4434B4F50F
:109CE000AA7FF3D1BDE8F08110030120034B53F8A4
:109CF000203013B19A6801329A607047E41901204C
:109D000038B5144B53F82040ECB1207944F026FFCD
:109D10000546607944F022FFA2790F49E37940EAD1
:109D2000450000F0030040EA8202A0718A5C1344FF
:109D300094F908205BB29342E37105DBE3680133D9
:109D4000E3600023E37138BD52429342FBDCE368D9
:109D5000013BF5E7283F0120D0A208002DE9F04F94
:109D6000A7B0054689463FF051FB09AC00283CD11D
:109D7000CDE913000CAA7E2128461BF025FEBB4B23
:109D80000F9301224023CDE9102316AB12930FABA2
:109D90000E93B74B09940A93082105A848F00DFDCE
:109DA00000272046CDE903773DF020FA3E463D46A8
:109DB0009DF854B0BBF1000F00F09A8120463DF0B1
:109DC00015FABBF15D0F00F091804CD8BBF13A0F52
:109DD0003FD8BBF11F0F14D8BBF10A0F35D8BBF128
:109DE000080FE5D8A34833F035FF012128461AF0C3
:109DF000EDFF43680A93002309950B938DF85430C7
:109E0000CAE7ABF12002D2B2012393409A4A13422F
:109E100040F0068102F5704201321340C8D1BBF117
:109E2000220FDFD106939DF854100029DAD02229A1
:109E300040F0A58020463DF0D9F9DDE906101EF07E
:109E400085F94FF0000A80462CE0BBF10D0FAFD032
:109E5000C8E7BBF15B0FC5D100203DF017FC804681
:109E60004FF0010A1EE0BBF1740F6FD036D8BBF182
:109E7000660F4CD0BBF16E0FB4D19DF85430752BEA
:109E8000B0D120463DF0B2F96C28ABD120463DF070
:109E9000ADF96C28A6D120463DF0A8F94FF0000A94
:109EA0004FF00E08002D40F0F78040461DF088F876
:109EB0000646BAF1000F40F00681B9F1000F00F03C
:109EC0001C81B8F1000F8DD0039B002B8AD105A80F
:109ED00048F04CFC404627B0BDE8F08FBBF17B0F4B
:109EE00000F0D680BBF17D0F7FF47CAF002D3FF4F6
:109EF00079AF039B002B00F00B81013B049A039385
:109F000052F8235028461DF05BF8064650E79DF8AE
:109F10005430612B7FF466AF20463DF067F96C2822
:109F20007FF460AF20463DF061F973287FF45AAFAB
:109F300020463DF05BF965287FF454AF20463DF0A4
:109F400055F94FF0000A4FF01E08ABE79DF854306A
:109F5000722B7FF447AF20463DF048F975287FF417
:109F600041AF20463DF042F965287FF43BAF2046E3
:109F70003DF03CF94FF0000A4FF03E0892E75C29B3
:109F80000CD120463DF032F97528014606D86D28DF
:109F900008D8622840D0662808BF0C2105A848F0E0
:109FA0006DFB35E0A0F16E03072BF7D801A252F844
:109FB00023F000BFD59F02009D9F02009D9F0200DD
:109FC0009D9F02001DA002009D9F0200D99F0200DC
:109FD000DD9F02000A21E1E70921DFE74FF00008D9
:109FE0004FF0040A20463DF001F940F02000C0B2D5
:109FF000A0F13002D2B2092A84BF5738C2B2BAF1F6
:10A00000010A42EA0818EDD1414605A848F048FB8C
:10A0100020463DF0EBF806E70821BFE70D21BDE73C
:10A02000002306939846594605A848F027FB9DF85B
:10A0300054B0BBF12E0F21D00BF0DF03452B1DD008
:10A04000BBF12B0F1CD0BBF12D0F19D0584633F0AC
:10A05000B3FC8246A0B9DDE906105346B8F1000F03
:10A0600012D052463FF0FDF880461BE73CA807009F
:10A070009F710600EE8307000020FF034FF00108E8
:10A0800020463DF0B3F8CEE70A221FF041FFEBE790
:10A0900000203EF08BFFE2E6204B9E4215D1414668
:10A0A00028463EF0F6FEBAF1000F3FF481AE049B65
:10A0B000CBB9012101A81DF06BFE049B1D60404639
:10A0C0001CF07EFF0646454672E62FB9BAF1000F36
:10A0D0007FF488AE47466BE63946424628463EF056
:10A0E00058FB0027DFE7294601A83EF0D2FEE6E74D
:10A0F000A846E2E620463DF079F89DF854502846FF
:10A1000033F06EFC0028F5D1002D3FF4DAAE69E69D
:10A11000A846B9F1000F7FF4D7AEEEE75CA70700C1
:10A12000C20713B5044603D5C0F3470002B010BD03
:10A13000830707D102680E4B9A4203D11CF02EFF11
:10A14000C0B2F3E720463EF06FFE48B120461CF057
:10A15000ABFEFCEEC07ACDED017A9DF80400E5E798
:10A1600020461CF02DFF5E22C188024833F066FDB8
:10A1700084800700458E070010B50E4847F06CFE3E
:10A180003F2815D90C4CA07835F0E4FB80B104F1E0
:10A19000100047F061FE3F28A07805D9BDE81040C7
:10A1A0000649402235F0FABCBDE8104035F0A8BCA5
:10A1B00010BD00BFB02D0120A02D0120602D012079
:10A1C00070B5164B5A78054632B31B785B0723D41B
:10A1D000134B40F6280444431E19F278E2B11034C0
:10A1E0001C44204647F038FE3F2815D9F07835F05A
:10A1F000B1FB88B1204647F02FFE3F28F07807D901
:10A200000849402201EBC511BDE8704035F0C6BCDD
:10A21000BDE8704035F074BC70BD00BF6D500120CA
:10A22000EC060120EC050120F8B5294B1D68294BEF
:10A230001B681A68012151641B68274AD3F84465DA
:10A24000002352F8044B14B12179814230D00133FC
:10A25000082BF6D1F8BD6369A069E289218AEB1A5F
:10A2600089B211FA82F2301AA189B2FBF1F7C3EB7D
:10A27000034303444FF6FF7001FB17228342A1689A
:10A2800028BF034621F81230238AA2899BB2934249
:10A2900004D2238A01339BB2238216E0E3899BB266
:10A2A0000133B3FBF2F102FB11339BB2E3810CE00B
:10A2B000E379002BCFD044F051FC6379003818BF0C
:10A2C0000120834201D00023E3716561A661C1E7EB
:10A2D0005C4B0120C04B0120083F01202DE9F04FCD
:10A2E00087B000230590494803704948FF24047053
:10A2F0004848D0E900764848D0E900B00090474887
:10A30000CDE90333D0E900EC144602EB810202925E
:10A31000A0464FF0FF314FF00109029A904531D12C
:10A3200013B13E4BC3E900EC039B13B1394BC3E9B6
:10A330000076049B23B1384B009AC3F800B05A60F2
:10A34000013104D0059B002B4CD10CF0B7F8344DF3
:10A35000344800220023C5E9002300231A4602994D
:10A360008C4245D15AB193ED017ADFED2F7A67EE39
:10A37000277A17EE900AFEF7E3FAC5E9000107B065
:10A38000BDE8F08F58F8040B8207C6D10268274D4C
:10A39000AA42C2D142681179027A0192C1F1200A1F
:10A3A000A1F12002019D29FA0AFA09FA02F242EA11
:10A3B0000A0209FA01FA7DB1009D15430095019D3D
:10A3C00004954BEA0A0B407A0028A6D04EEA0A0E02
:10A3D0004CEA020C0346A0E7012547EA0A071643A8
:10A3E0000395F0E7124A00231360124A1370AEE798
:10A3F00054F8041B8E07B2D10E688642AFD112B159
:10A400000D4833F027FC0B460122A8E7CC51012070
:10A41000D4510120C8050120B8050120D80501202C
:10A42000E005012078C4070000007A4494C40700C6
:10A43000704B01208951012065940700242B2DE9E0
:10A44000F0478646904601D8012B06D1FEF772FAF6
:10A45000162303600020BDE8F08734480D462A46E5
:10A4600015F8014B065D16F00806F8D12D2C10D119
:10A470002C780126951C33F0100215D1302C0DD10B
:10A480002A7802F0DF02582A08D16C7802351023AE
:10A490000AE02B2C04BF2C78951CECE7002BF6D19E
:10A4A000302C14BF0A23082306F1004C0CF1FF3CAA
:10A4B0000022BCFBF3F9104603FB19CAA4F13007D4
:10A4C000092F0FD83C46A3421BDD571C07D08145FE
:10A4D00014D301D1A24511DB00FB0340012215F882
:10A4E000014BEBE7A4F14107192F01D8373CEAE70C
:10A4F000A4F16107192F04D8573CE4E74FF0FF326D
:10A50000EDE7531C08D12223CEF800306046B8F1A5
:10A51000000FA0D0691E06E006B14042B8F1000F5E
:10A5200099D0002AF6D1C8F8001094E7CDB60800FB
:10A530002DE9F043344E86460D46284615F8014B6A
:10A54000375D17F00807F8D12D2C10D12C78012792
:10A55000851C33F0100015D1302C0DD1287800F077
:10A56000DF00582808D16C78023510230AE02B2C24
:10A5700004BF2C78851CECE7002BF6D1302C14BFDF
:10A580000A2308234FF0FF380026B8FBF3F803FB3B
:10A5900008F96FEA09093046A4F1300CBCF1090F43
:10A5A00010D86446A3421EDDB6F1FF3F07D08045B8
:10A5B00016D301D1A14513DB00FB0340012615F89A
:10A5C000014BE9E7A4F1410CBCF1190F01D8373C6C
:10A5D000E8E7A4F1610CBCF1190F04D8573CE1E79E
:10A5E0004FF0FF36EBE7731C06D12223CEF8003084
:10A5F000304632B9BDE8F08307B14042002AF9D0B5
:10A6000006B1691E1160F5E7CDB608002DE9F74FD8
:10A6100080460D46019247F093F8D8F80430AD4FCC
:10A6200001225A72D8F804301E791C68342303FBC7
:10A630000677002387F82E30EB6803F06043B3F110
:10A64000005F81468A4607D0A348D8F8043000222C
:10A650005A7203B0BDE8F08FA04BC4F8083397F8E6
:10A660002F3003F0FF0B23B1BB689D48C4F80433BF
:10A67000EBE787F82F20AE46BEE80F0007F10C0C81
:10A68000ACE80F00DEF80030CCF8003087F830B0CE
:10A690006B78C4F888354FF48271204644F0FDF998
:10A6A0004FF49271204644F0F8F9C4F850B5C4F85C
:10A6B00040B52B78032B00F2B380DFE803F0729AE9
:10A6C00052022B6903F06043B3F1005FBCD14FF439
:10A6D0008073C4F800326B68EA68C4F844254FF40C
:10A6E000A871C4F84835204644F0D7F94FF4B0714A
:10A6F000204644F0D2F94FF4A471204644F0CDF93D
:10A7000001232362A360D4F85031002BFBD04FF417
:10A71000A871204644F0C1F9AB682A69C4F8442501
:10A72000C4F848356B4B342202FB06336D4A9A60FD
:10A730004FF4827308226C4F2978664D03291CBFA1
:10A740000121A15034227243A918AA58002A79D0B5
:10A750008B68C4F80433644B9F4200F0AA806348BE
:10A7600073E76B68EA68C4F84425C4F848352B6978
:10A7700003F06042B2F1005F7FF466AFAA68C4F8EC
:10A7800034354FF48453C4F83825C4F80032514BA3
:10A79000342202FB063340F202229A600123236234
:10A7A000C6E701996B68EA68C4F84425C4F84835DF
:10A7B0003422484B89B102FB06334FF48071C4F850
:10A7C0000012484A9A604FF4A471204644F065F99B
:10A7D0004FF4A47301222262ACE702FB06334FF46C
:10A7E000007140F20222C4F800129A604FF48273A2
:10A7F000F0E76B68EA68C4F83425C4F838354FF4DC
:10A800008053C4F80032334B342202FB063340F24B
:10A8100002229A600123236200224FF482738AE7A6
:10A82000324F4FF48273082286E7D4F8242152B1C4
:10A830004FF49271204644F030F9012323626361A2
:10A840004FF4827323441A68002AEED03421D4F8DE
:10A85000C434C4F8C43401FB0652002082F82F002F
:10A860008BB1234A234813F0010F08BF104613F0A1
:10A87000020F02F5803218BF104613F0040F1E4B72
:10A8800018BF1846E1E606FB0151204636F040FCB1
:10A8900000287FF460AF1648D7E646F051FF8145A7
:10A8A00074EB010109D2D8F80430144800225A721E
:10A8B000CFE619F57A794AF10004D8F804305A7ACB
:10A8C000002AEAD19B7A042B96BF0D4A084852F819
:10A8D0002300BEE6904601200A00AD0B02029C0157
:10A8E0000B00AD0B000204000000AD0B0400AD0B2B
:10A8F0000100AD0B0000AE0B0200AE0B0700AD0B6C
:10A90000FCB5080090ED007ADFED0D6AB4EEE67A52
:10A91000F1EE10FA07EE901A0DD5F8EEE77AF2EEA6
:10A92000046AE7EE267A012BC0ED007A02D11368A3
:10A93000013B13607047002BFCD113680133F8E72B
:10A94000EC78AD6008B510EE103A23F00042B2F199
:10A950007E5FF0EE405A10D308D19FED2F0ADFED55
:10A960002F7A002BB8BFB0EE670A08BD70EE405AD0
:10A97000DFED297A87EEA50AF7E7B2F17C5F11D205
:10A98000B2F14A5F9FED266A42D920EE000AFDF738
:10A9900057FBDFED247AE0EE657A75EEE75A36EE86
:10A9A000650AE2E7002BB7EE000AF6EE007A14DA49
:10A9B00035EE800A20EE270AB1EEC06AFDF740FBB3
:10A9C000DFED197AE0EE067A9FED150A36EE276A7A
:10A9D00030EE460A30EE000AC7E730EE650A20EE98
:10A9E000270AB1EEC05AB0EE407A15EE103A6FF376
:10A9F0000B0306EE103AA6EE467A75EE067AC7EE1F
:10AA0000275AFDF71DFBE0EE055A36EE250AE1E771
:10AA1000B0EE460AA9E700BF00000000DA0F494087
:10AA2000DA0FC93F6821A2336821A2B308B510EE3E
:10AA3000103A23F000425B00F0EE407A0FD4B7EEFC
:10AA4000007A70EE477ABDE8084037EEA77AA7EEA5
:10AA5000A77AB1EEC70A37EE800A15F041BBB2F112
:10AA60008B4F13D2FFEE006AE0EE006ABDE80840AB
:10AA7000B1EEE67AF7EE006A37EE007A86EE870AE4
:10AA8000B0EE007A97EE870A15F0D6BB15F0D4FB2E
:10AA9000DFED027A30EE270A08BD00BF1872313FA1
:10AAA000F0B50C2089B00D461B4916461F463EF0F6
:10AAB0004CFA02AB0193194B00930446032328463A
:10AAC0003A4631463DF03DF89DF80C300298606002
:10AAD00023729DF81030E3B107F07CFA606805AA94
:10AAE00040F2B7311AF070FF237A5B0043F00103A4
:10AAF00005AA0021012007933DF014F93EF0A0F9CA
:10AB00000546606838F0A3FB1DB9217A044833F08C
:10AB1000A9F8204609B0F0BD94EA0700A8A50800EE
:10AB20004495070010B58EB003AB51F8044B019368
:10AB3000194B00930138032316F0E8FB40F2D131A2
:10AB4000606806AA1AF040FF237A5B0043F0010315
:10AB50000893039B099340F626130A93049B5B001A
:10AB600043F001030B93059B6FF0004293421FBF1C
:10AB700040F2E6425B000C9243F0010314BF022155
:10AB8000012106AA4FF0020018BF0D933DF0CAF84C
:10AB90000E200EB010BD00BF90A5080010B58EB0FD
:10ABA00003AB51F8044B0193194B00930138032375
:10ABB00016F0ACFB4FF49861606806AA1AF004FF27
:10ABC000237A5B0043F001030893039B099340F64B
:10ABD00026130A93049B5B0043F001030B93059B30
:10ABE0006FF0004293421FBF40F2E6425B000C92BE
:10ABF00043F0010314BF0221012106AA4FF0020015
:10AC000018BF0D933DF08EF80E200EB010BD00BFA2
:10AC100078A5080010B596B003AB51F8044B01932A
:10AC20002D4B00930138062316F070FB09AA6068CB
:10AC300040F2C1411AF0C8FE237A5B0043F00103E1
:10AC40000B93039B0C93049B0D9343F616130E93E7
:10AC5000059B5B0043F001030F93069B6FF00042DE
:10AC6000934235D05B0043F0010343F6E6021193B3
:10AC700010920923032116AA02EB830243F2560025
:10AC800042F8340C16AA02EB8300079A520042F0F5
:10AC9000010240F8302C089A6FF00040824210D038
:10ACA00016A800EB830043F2260440F82C4C16A8AB
:10ACB00000EB8303520042F00102013143F8282CDB
:10ACC000C9B209AA03203DF02DF80E2016B010BD20
:10ACD00007230221CFE700BF48A50800F0B51820E0
:10ACE0008BB00D461F491F4616463EF02EF903ABAA
:10ACF00001931D4B00933A460446072328463146EC
:10AD00003CF01FFFDDE903700E2811D0830703D14B
:10AD10000268164B9A420BD01CF052F9C38800937C
:10AD2000134840F24313FF2240F2422132F086FFE3
:10AD3000069E9DF820109DF824209DF81C509DF83B
:10AD400014302061C4E90176049825730E286173DC
:10AD5000A273237503D00022012138F0FFFC2046A6
:10AD60000BB0F0BD78EA070010A508005CE807000A
:10AD7000269B070030B58BB004466A464068244DD8
:10AD800040F27E411AF020FE00216A4608463CF05F
:10AD9000C9FF3EF055F8002831D060686A4640F29D
:10ADA00059211AF011FE42F2D6130293A3685B00F8
:10ADB00043F00103039343F6A6230493237B5B0034
:10ADC00043F00103059343F616230693637B5B0070
:10ADD00043F00103079342F246221123CDE90823F1
:10ADE00004216A4600203CF09DFF23690E2B03D00E
:10ADF000217D586838F09EFC60680BB030BD01F0D2
:10AE000061FCAB6A002BBFD001201AF005F9BBE74B
:10AE10006C4701202DE9F341044601F134000E4650
:10AE200001F030FC2388102B05D0112B41D00020DD
:10AE300002B0BDE8F081314D002388224FF6FF714A
:10AE400002FB03F7E85B884205D00133052BF7D1FD
:10AE50004FF40877042388225343A188E952EA1863
:10AE60004FF000080E2307F16000D3652844244901
:10AE700082F85A80A2F87680EA1903F04BFBC6F8F4
:10AE80001880206961696C373D4403C5684645F008
:10AE9000DAF9BDF80030228A9A4202D8628A9A42D0
:10AEA00003D2A088694645F0B6F90023F36001207B
:10AEB000BEE7A388114F0025882202FB05F1785ACE
:10AEC000984205D00135052DF7D14FF408710425BE
:10AED00039440B4803F034FB88235D437A194FF65D
:10AEE000FF737B53002382F85A30D26D0E2A1EBFA7
:10AEF0005360217A1172B361D9E700BF10030120BA
:10AF0000F1650300F0B54FF48A708BB00D4625490A
:10AF100016461F463EF019F805AB0193224B0093ED
:10AF2000314605233A46044628463CF00AFE0522EF
:10AF3000059802A919F0F8FE039EA6F11002102A46
:10AF400003D81A4BD340DB0702D4194832F082FEF3
:10AF5000069D029F022D04DC002D04DC154832F012
:10AF60001DFE062DFAD1079868B90023089AC4F887
:10AF70001021204684F80C513246394638F024FA24
:10AF800020460BB0F0BD012202A919F0CDFE002829
:10AF9000EBD0039840F22F12102116F059FA029BC1
:10AFA000E4E700BF34EA0700B8A40800010101008B
:10AFB000C09507008493070070B588B003AB51F8C3
:10AFC000045B0193184B00930138022316F09EF99D
:10AFD0000522039805A919F0A7FEDDE90564A4F18F
:10AFE0001002102A03D8114BD340DB0702D41048BB
:10AFF00032F030FE049840B90023284622463146FC
:10B0000038F0E2F90E2008B070BD012205A919F050
:10B010008BFE0028F0D0069840F22F12102116F077
:10B0200017FA059BE9E700BFC0A508000101010070
:10B03000C095070010B5044608463DF025FC0228DF
:10B0400004DC002804DC044832F0A8FD0628FAD10C
:10B0500084F80C010E2010BD849307002DE9804870
:10B0600085B002AF3B1D01931F4B009305460123A2
:10B070000E46002016F04AF93146284635F008F809
:10B08000D7F80480DFF86CB040461CF053FE4FEA5E
:10B0900060094FEA8903073323F00703ADEB030D83
:10B0A0000DF1080A00244C4505D1A4B10F484FF416
:10B0B0006D7132F07BFD6100042241F001014046D8
:10B0C0001EF048F940F20322594616F001FA4AF8F8
:10B0D00024000134E7E7294601203246FFF7FEF855
:10B0E0000348214647F0D7F82CA60800D59B070057
:10B0F00008A608005CE8070070B50E460546002863
:10B1000044D034F0C5FF324629460020FFF7E6F868
:10B1100000F0B0F900231A4630F0C4FA1C4B9C6AC8
:10B1200094BB38F071F978B3FEF7A8FD012818D068
:10B1300002280BD1174A234656F82340A10702D113
:10B140002168914203D001339D42F5D10E2420465F
:10B150002DF09EFD00F064F820462DF099FD20466C
:10B1600070BD0D4B0D491A78234656F82340A007B1
:10B1700006D12068884203D1606800799042E6D009
:10B1800001339D42F1D1E1E70E24E3E70E24E6E727
:10B190006C47012078C40700D451012094C40700F3
:10B1A000F0B50C2087B00D46144916461F463DF0F9
:10B1B000CCFE02AB0193124B00933A460423314676
:10B1C000044628463CF0BDFC4FF46971029834F007
:10B1D00027FF9DF810109DF80C209DF8143011B138
:10B1E000084832F037FD01792F2901D944F0FBFBE3
:10B1F000606020462272637207B0F0BD94C40700FD
:10B20000E8A50800EE97070010B5044C23781BB999
:10B210000BF054F90123237010BD00BF89510120A8
:10B22000F8B5384C384D23686FF31723AB4223D061
:10B230004FF48072354800213CF016FC344A00235C
:10B240001370344A13704FF080434FF44032C3F808
:10B250000429C3F81429C3F82429C3F83429C3F8EE
:10B260004429C3F85429C3F86429C3F874294FF456
:10B270007C12C3F884292560274E284D0024D5E987
:10B280000001D6E90032C4F1200703430A4301203C
:10B29000A4F1200100FA01F120FA07F73943A04098
:10B2A00003400A40134308D0E0B22CF0B1F9204625
:10B2B00025F0A4FE204625F089FF0134402CDED184
:10B2C0001749184800220023C6E90023C5E90023D6
:10B2D000C1E900234FF40033C0F84833D0F8042309
:10B2E000920308D5C0F80833D0F844311BB14FF4AD
:10B2F000A27143F0D2FB0C4B00200021C3E90001F6
:10B30000F8BD00BFD0510120AF0000ADD5510120E4
:10B31000CC510120D4510120B8050120C8050120DD
:10B32000D805012000400240E0050120F0B50D469F
:10B3300087B000261446002A5ED08A075FD10A68CB
:10B34000414B9A425BD16A464FF480703EF09FF9C0
:10B3500010B93E4832F022FCDDE90035042CA5EBA3
:10B36000030536D0A30732D12368394A934208D067
:10B37000384A934205D0384A934202D0374A934222
:10B3800025D1052203A9204619F0CEFC049BAB422F
:10B3900002D0334832F05EFC9DF81410039C00226A
:10B3A000402016F0C7F8012801D02E48F2E7009B94
:10B3B0005A19B2F5807F07D82B482A4621461844EF
:10B3C0003CF012FB0E2417E0284832F011FC28480C
:10B3D000C0E728463CF062FA009B5A19B2F5807F1C
:10B3E000044604D820492A4619443CF0FDFA214677
:10B3F00028461CF013FD0446204607B0F0BD2A463F
:10B40000006800234FF4807119F0ACFC042C054651
:10B4100000F1010708D1B7F5807F9CBF124B1E5C7D
:10B42000760046F00104E7E720463DF02DFA42237E
:10B43000FF220021044615F0FBFFB7F5807FC3D83B
:10B44000094B5C55BEE700BF40A6070023860700F6
:10B4500014AE07003CA8070010A70700609C070077
:10B46000299307005F990700D5510120A391070098
:10B47000528F070038B5084BD3E9004554EA05035D
:10B4800005D046F05DF9201A65EB010138BD4FF09B
:10B49000FF300146FAE700BFE0050120F0B52DEDD1
:10B4A000028B0C4689B03249082016461F463DF0F3
:10B4B0004CFD03AB01932F4B00933A460223054604
:10B4C000314620463CF03DFBDDE90304B0F10E02BD
:10B4D00018BF0122B4F10E0318BF01239A4202D112
:10B4E000254832F0B7FB0E2838D01BF0DDFCB0EE5B
:10B4F000408A46F025F9FCF76DF8DFED207A07EE7B
:10B50000100A0E2CC7EE278A21D004983DF05AFB72
:10B5100004462CF033FA05A92FF016FD9DF81A30D9
:10B5200001939DF8193000939DF817209DF818306D
:10B530009DF81610BDF8140030F0B6FC104B241A1C
:10B54000234407EE903AB8EEE78A38EE288AB4EE44
:10B55000E88AF1EE10FA04D50A48C2E79FED0A8A9C
:10B56000C7E7284685ED018A09B0BDEC028BF0BD26
:10B5700078C40700D8A50800D892070000007A44D4
:10B5800080BC92C782920700000000001FB50C46E5
:10B5900008200B4915461E463DF0D7FC03AB01932E
:10B5A000084B009332460123294620463CF0C9FA55
:10B5B00003984FF4697134F033FD002032F0EEFA55
:10B5C0005CC40700D0A5080038B51C4608461146E3
:10B5D0004FF0021215F072FE20684FF4697134F0DA
:10B5E0001FFD0949044608203DF0AFFC637905467C
:10B5F0000BB944F0F8F9207943F057FA207906F0B6
:10B60000F1FB6C60284638BDB0E9070008B540681A
:10B6100037F083FC004808BD3233D3C037B5054648
:10B62000406837F07AFC324A00230321ADF8063037
:10B63000C2F8F0150121C2F8F435C2F80015194618
:10B640001A0102F1804202F5E0420133082BC2F8F0
:10B650001415C2F81015F3D1254C4FF49053C4F8CB
:10B6600018356B685B79C4F81435C4F810350DF1E2
:10B670000603C4F82C360123C4F830362360D4F80E
:10B680000031002BFBD01A484FF4807143F005FACB
:10B6900001236360164CD4F80431002BFBD014480E
:10B6A0004FF4827143F0F9F90123A360D4F8143107
:10B6B000002BFBD00E484FF48A7143F0EEF90023C3
:10B6C000C4F80035C4F81435C4F81035BDF90620A7
:10B6D0009A42B8BFADF80630BDF90630181340EAFB
:10B6E000830080B2400040F0010003B030BD00BFD5
:10B6F000007000401C4608B5084611464FF0021283
:10B7000015F0DCFD4FF46971206834F089FC0449C0
:10B7100004203DF01AFC0348E72132F047FA00BF4D
:10B7200094E90700D59B07002DE9F04F2DED088B1C
:10B730008FB009AB01936C4B0093052315F0E6FD28
:10B740000021099823F026F8002106460A9823F0E4
:10B7500021F8044600210B9823F01CF8E379012B13
:10B7600005460AD1C379012B07D1A268012A04D961
:10B770008368012B01D99A4202D05C4832F06AFA00
:10B780006621B06843F06BF8E76994F8048005908F
:10B790004146384642F0F1FFA368A069013B00FB37
:10B7A00003704146B0EE40BA42F0E7FF0C98EF69F3
:10B7B0000E28F0EE40BA26D12979384642F0DDFF56
:10B7C0000D980E28F0EE408A20D1A868AB6929793F
:10B7D000013803FB007042F0D0FFEB690493F3697A
:10B7E0000293059BD4F81CB0DB690393B0EE409A3A
:10B7F0004FF00009B3684B450BD805980FB0BDEC6E
:10B80000088BBDE8F08F1BF04FFBD9E71BF04CFB1A
:10B81000E3E70298317942F0B0FF029AB369B4EEDF
:10B82000C0BA1A44F1EE10FAB0EE408A029254DC2B
:10B83000F4EEC0BAF1EE10FA52D4A768D4F818A00A
:10B840002179013F4FF00008A7EB0803012B32D804
:10B850000AFB08B0069142F090FF06990AFB07B078
:10B86000F0EE40AA42F089FFAB69049A297907916A
:10B8700003FB0820F0EE409A069342F07EFF049A04
:10B88000069B079907FB0320B0EE40AA42F075FF24
:10B8900038EE6A8A30EE4A0A79EEEA9A28EE008A91
:10B8A000C8EE297A77EE8A7A039BE3EC017A039358
:10B8B00009F101099EE708EB53030AFB03B0079166
:10B8C000069342F05AFF069B0799B4EEC08AF1EE48
:10B8D00010FA8CBF98461F46B6E7F0EE687AE3E7A9
:10B8E000F0EE497AE0E700BFD0B108006C890700AC
:10B8F0002DE9F0472DED048B86B003AB0193504B3F
:10B900000093032315F002FD0398002122F042FF6B
:10B910008368012B044640F29180C579012D02D045
:10B92000484832F097F9007922F0B6FF8146049832
:10B93000E6690E285CD0002122F02CFFC779012F88
:10B94000054603D1A26883689A4201D03E48E8E7E1
:10B9500000799FED3E8A22F09FFF82463046D5F85F
:10B960001C80C847A36940461E44F0EE408AD04779
:10B97000AB69B0EE409A9844A368BB4218D8A3685C
:10B98000013B07EE903AB6EE007AF8EE677A28EEC1
:10B99000078A67EE887A17EE900A20F0030040F0DD
:10B9A0000200A0F1FF4006B0BDEC048BBDE8F087BB
:10B9B0003046C847A3694046F0EE409A1E44D0473F
:10B9C00078EEA98A30EE499AF0EE486AD9EE286AF4
:10B9D000AB6907EE907AB8EE677A9844C6EE877A3C
:10B9E0000137B0EE409A38EE278AF0EE698AC3E755
:10B9F00005989FED168A1BF057FA3046B0EE409A34
:10BA0000C847A668F0EE408AAE4202D828EE098AFE
:10BA1000B5E72A462179E06942F076FE07EE905AB2
:10BA200078EE808AB8EE677A78EEC88A0135C8EE7B
:10BA3000877AF0EE408A38EE278AE5E70448B2E7D5
:10BA400010B208004B830700568307000000000077
:10BA5000020080801E2803460CD03E280AD010F039
:10BA6000010007D19A0706D11868034BC31A584240
:10BA7000584170470120704784800700F0B51B28AB
:10BA80008DB006460C46154672D03CD80E2800F004
:10BA90009C8004D8042840F2B580002430E01028AF
:10BAA000FBD115F0010206D115F00303F5D1296889
:10BAB000704A9142F1D128463CF0E6FE012205464B
:10BAC00009A9204600F03CF9102E0A9F3DD12179AA
:10BAD0000022402015F02EFDA3686B4300FB03F10C
:10BAE000E0683BF0E9FEA368E0606B43A360636835
:10BAF00003F0FF0363601DB1013DC319002F34D172
:10BB000020460DB0F0BD1D28CBD02428C5D1012280
:10BB100003A9284619F008F9002860D0A10712D11E
:10BB20002268554B9A420ED1012209A9204600F005
:10BB300007F901230093DDE90901DDE903233AF068
:10BB400029FF00285CD11E24DAE7A1689DF82C00AB
:10BB5000694300F04FF9C3680446CFE718460999D6
:10BB60003A463BF041FF03463B44013DF6D2C7E76E
:10BB70000A68424B9A4290D009A90122204600F05F
:10BB8000DFF806A90522284619F0CEF89DF82C10FA
:10BB90000022402015F0CEFCA168079EB6FBF0F60F
:10BBA000054631449DF82C0000F024F90446DDE9F7
:10BBB0000912C0683BF018FFE0680A9B069906FB73
:10BBC00005F218443BF010FF9AE70A682B4B9A42A3
:10BBD0003FF463AF2946204636F087FB90E7EA073B
:10BBE00002D5002031F0DAFFAB0703D12A68214BE0
:10BBF0009A42F6D028463DF017F90028A3D0F0E786
:10BC00003E247DE7012209A9204600F099F801228F
:10BC100006A9284619F088F8002894D00B9A012A22
:10BC200021D05A2A21DC20320146089B012B1ED04C
:10BC30005A2B01DC203301469342D2D123F0020378
:10BC4000642BCED0022E01D00029CAD0079B0093CE
:10BC5000DDE90912069B30463DF08AFC002814BF3E
:10BC60003E241E244CE74222DDE70021DDE742238B
:10BC7000E0E700BF848007003CA8070010A707008A
:10BC80002DE9F043012885B006460F4608D08B0702
:10BC900028D10B68274A934202D0274A934221D1E8
:10BCA000012201A9384619F03FF8D8B131460022E7
:10BCB000402015F03FFC029BB3FBF0F100FB01F5C7
:10BCC000AB4202D01D4831F0C5FF304600F092F87B
:10BCD000019904462A46C0683BF086FE204605B01E
:10BCE000BDE8F08338461CF035F8054600B1451034
:10BCF0002946304600F07EF800210446384619F007
:10BD00007FF84FF000080746384619F033FA03462B
:10BD10000028E3D025B91946204636F0B3FAF3E7F8
:10BD20004246E16808F10109304615F0F5FFC846C2
:10BD3000EAE700BF609C07003CA807008B8E070065
:10BD400070B50D460179044601F07F01164640208A
:10BD5000002215F0EFFBE3682B60A26842436A60A3
:10BD6000227902F07F02AA602168094A91420BD130
:10BD700094F90420002A01DBB20707D46268C2F3F9
:10BD8000172200FB02332B60002070BD0120FCE76E
:10BD900010A70700084A0346C1E900230022C1E9B1
:10BDA00002220846054A1968914202BF5B68C3F344
:10BDB00017238360704700BF60AE070010A707001D
:10BDC00038B50D461C4611462846094A15F076FA44
:10BDD00020681DF09FF9012D007804D1BDE838409E
:10BDE000002100F007B86168BDE83840FFF748BFA0
:10BDF000040002007828F8B505460E4602D1104826
:10BE000031F028FF01460022402015F093FB074641
:10BE100010203BF043FD0B4A0B4B0571012D08BF71
:10BE200013460360436803F0FF030446C0E901368C
:10BE300006FB07F03BF032FDE0602046F8BD00BF96
:10BE4000DD8E07003CA8070014AE0700F8B50A799C
:10BE5000012A05460C460DD119493DF0BBFAD4E93B
:10BE6000022128461EF052FF28461649BDE8F84038
:10BE70003DF0B0BA14493DF0BCFAA368002BF3D0F2
:10BE80001249134F28463DF0A5FA0026A368B34295
:10BE900004D8104928463DF09DFAE5E71EB1394621
:10BEA00028463DF097FA3246E168207915F01CFCEF
:10BEB0000122014628461CF0BFFA0136E6E700BF22
:10BEC0009B2E07009E710700A72E0700B22E0700C9
:10BED00068720700FE6F07002DE9F04F044687B037
:10BEE0000D4616460AB90025D0E011F00307806818
:10BEF000DFF830A240F0DF800B68824A934240F0C6
:10BF0000DA806A463DF0C3FB10B97F4831F046FE47
:10BF10002179042E01F07F013A464FF0400000F0F5
:10BF2000968015F007FB16F00302054655D13168DF
:10BF30008B7B002B42D001EB83031869734B984233
:10BF40003CD13179402001F07F0115F0F3FAA8428D
:10BF500002D06F4831F07EFE33685345D6E9028B3C
:10BF600038D17368C3F3172905FB09F9DDE9000629
:10BF70002368E768361A5345A8EB06062FD194F9D3
:10BF80000430002BAFDA002EE3D16368C3F317232C
:10BF900005FB037705FB08F20BEB090105FB0070BD
:10BFA0003BF04AFD0199A268009B521A08EB03007E
:10BFB0006A4305FB017105FB007039E0554B99425E
:10BFC0000BD1012DC5D1052203A9304618F0ACFED6
:10BFD000DDE903B84FF00009C8E74F4896E7002EA7
:10BFE000D8DD6368B6EB132F2FD9A16831446943BC
:10BFF00038463BF061FC6368E06066F31F238246CD
:10C000006360BB4508BF83460098A268019940441D
:10C010003244121A6A4301FB05A105FB00A03BF064
:10C020000BFD009805FB08F20BEB090100FB05A0D6
:10C030003BF002FD6368C6EB132262F31F236360CB
:10C04000A3683344A3600E2520E0BA46DCE715F070
:10C0500071FA236853450646009B1BD1B3F1807FDC
:10C0600003DB2E492E4846F016F910203BF016FC53
:10C07000054694E80F0085E80F00009A02EB1123B3
:10C0800063F31F216960019B9B1AAB60284607B0D0
:10C09000BDE8F08F01992079C91AFFF7ABFEDDE901
:10C0A0000032E168D21A0546724306FB0311C068EC
:10C0B0003BF09AFCEAE700232A460146206818F084
:10C0C00051FE23685345024611D16368042E00EBEC
:10C0D00013220ED094F90430002BBFF604AF207960
:10C0E000E168334600F07F0015F016FEABE7042E42
:10C0F000F5D12079E16800F07F0007B0BDE8F04F8E
:10C1000015F0F2BA40A6070023860700D9BE020048
:10C11000B2880700609C0700528F0700088807005C
:10C120001CA2070010A7070010EE102A08B522F085
:10C130000043B3F17E5FB0EE406A12D319BF76EED2
:10C14000467A9FED1F7ADFED1F7A9FED1F7A12BFAF
:10C1500087EE276AE0EE077AB0EE676AB0EE460A2D
:10C1600008BDB3F17C5F0BD2A3F50003B3F1645FAC
:10C17000F4D320EE000AFBF763FFA0EE066AEDE7BA
:10C18000B0EEC06AB7EE000A30EE460AF6EE007A6C
:10C1900020EE270AB1EEC06AFBF752FF002ADFED5E
:10C1A0000B7AA0EE066AB0EE007AE6EE077A9FED13
:10C1B000066A36EE676AB8BFB1EE466ACEE700BFE0
:10C1C0000000000000008003DA0FC93F6821A2B31D
:10C1D0001FB58DED010A019B23F00042B2F18B4F98
:10C1E00000EE102A4FEAD3700BD314F025F8DFEDE0
:10C1F0001E7A30EE270A08B1B1EE400A05B05DF8AC
:10C2000004FB5B0014D5B7EE007AF0EE476AE0EE6F
:10C21000006AF1EEE67A77EE807AC7EE276AF0EEF2
:10C22000007AE0EE276AB0EE660A14F005F8E2E75D
:10C23000B2F1665F10D320EE007AF7EE006A37EEB7
:10C24000266AF1EEC67A77EEA67AC7EE276A36EE50
:10C25000800A13F045FFCEE7DFED047A70EE277A0F
:10C26000CDED037A039BC6E71872313F0000807B57
:10C2700008B5044B1A68044B9A4202D00D202BF0EB
:10C28000B1F908BD009C0320EF2978011FB518B350
:10C290000E2821D04FF010220379D2F80C22D207B9
:10C2A00003D5A3F10902012A0AD95909012203F091
:10C2B0001F0302FA03F30A4A52F8212013420BD05B
:10C2C00040F28513039301A903AB02AA10F08CFD81
:10C2D0000399044831F0C6FC05B05DF804FB00BFCB
:10C2E00018400120919B0700F4EE400AF1EE10FA8D
:10C2F00010B5F0EE407A04D770EE207AB0EE670AFF
:10C3000010BD10EE902AB2F17E5F10EE103A03D10C
:10C31000BDE8104000F080B8940F04F0020444EA35
:10C32000D37433F0004308D1022C59D09FED317AF9
:10C33000032C08BFF0EE477AE0E732F0004209D163
:10C34000DFED2D7A9FED2D7A14F0010F08BFF0EE8E
:10C35000477AD3E7B2F1FF4F10D1B3F1FF4F04F1A9
:10C36000FF3407D1022C3ED8254B03EB8403D3EDD9
:10C37000007AC3E7022C39D8224BF6E702F150616C
:10C380009942DDD3B3F1FF4FDAD0A10703D503F112
:10C39000506393420CD387EEA00AB0EEC00A00F0BF
:10C3A0003BF8012CF0EE407A04D1F1EE407AA5E79B
:10C3B000DFED157A022C0AD0002C9FD09FED137A66
:10C3C00077EE877A9FED127A77EEC77A96E79FED40
:10C3D0000F7A77EE877A9FED0E7A77EE677A8DE7A0
:10C3E000DFED0B7A8AE7DFED0B7A87E7DFED067A80
:10C3F00084E700BFDB0F49C0DB0FC9BFDB0FC93FBC
:10C4000000B00800F4AF0800000000002EBDBB33F0
:10C41000DB0F4940DB0F493F10EE102A22F00043AA
:10C42000B3F1994F82B04FEAD2700ED3B4EE400A06
:10C43000F1EE10FA07D69FED410ADFED417A0028B0
:10C4400018BFB0EE670A02B070473E498B420BD866
:10C45000B3F1665F5AD212F0FF4FF4D160EE007A6A
:10C46000CDED017A019BEEE7374A9342F0EEC07AB8
:10C4700037D8A2F5D002934229D8F0EE006ABFEE79
:10C48000007AA7EEA67A002377EEA67A87EE270A2F
:10C490005A1C60EE006A9FED2D6ADFED2D7ADFED0C
:10C4A0002D5A26EEA67AE7EE067A9FED2B6AA7EEC6
:10C4B000876ADFED2A7AE7EE257A67EE877AE6EE7D
:10C4C000267A60EE277A24D130EE670ABBE7B7EE12
:10C4D000007A77EEC76A77EE877A012386EEA70A9D
:10C4E000D6E71F4A93420BD8F7EE086AB7EE007AF8
:10C4F000A7EEA67A022337EEE66A86EE070AC7E7BA
:10C50000BFEE007A87EE270A0323C1E74FF0FF331F
:10C51000BEE7144A144902EB830201EB830393ED57
:10C52000007A77EEC77A37EEC00AD2ED007A37EE9E
:10C53000C00A002887D0B1EE400A84E7DA0FC93F6D
:10C54000DA0FC9BFFFFFDF3EFFFF973F25AC7C3D01
:10C550000DF5113E4712DABDA9AAAA3E98CA4CBEF3
:10C56000FFFF1B401CB008000CB008002DE9F84F7D
:10C57000D1F800900128054600F1FF3848468CBFED
:10C5800001F1040B4FF0000B0F4692461BF010FB1D
:10C5900030B948461AF014FDC188264831F04EFBE8
:10C5A000BAF1000F2FD0DAF80060C6F3DC0618EB02
:10C5B000060404D03444A0003BF070F90446002285
:10C5C000904522D804EB85000022964200F1080035
:10C5D00021D1194DDFF864A02968DAF80000013193
:10C5E00009013BF069F92B68CAF800005A1C2A605F
:10C5F0001A0100EB031340F80280C3E90169DC6013
:10C600003868BDE8F88F5646D1E75BF8223044F829
:10C6100022300132D4E7DAF8083053F8323040F8EB
:10C620000C3CDAF8083003EBC20301325B6840F8D7
:10C63000083CCAE7D09A07001040012008400120BA
:10C64000F0B50023DFF838C00C4E19460E27DCF891
:10C650000020934201D30E20F0BD346804EB031296
:10C660004FEA031E9568854208BF44F80E1003F197
:10C67000010304BFC2E90117D160E8E708400120C7
:10C680001040012010B5044606F0ECFBE3681BB92E
:10C690000A4A1168A14203D1BDE8104006F0F4BB7C
:10C6A000A360074B1968E160196809B119688C60CB
:10C6B000116801B914601C60EEE700BF0C40012056
:10C6C000144001202DE9F041134E33680BB3134D94
:10C6D00006F0C8FB2C681CB1BDE8F04106F0D4BBE5
:10C6E0000F4A01232B603368346014601BB92B6838
:10C6F000013B2B60F0E7D3E900689F68C3E902447F
:10C7000006F0C2FB0EB14046B04706F0ABFB3B461D
:10C71000ECE7BDE8F08100BF0C40012000400120A3
:10C720001440012010B5064A002352F833408442D9
:10C7300002EBC30101D90133F7E7486810BD00BF20
:10C7400088A20800F0B587B0084611461A4602AB29
:10C750000193214B009304233BF0F3F940F20C4189
:10C76000029833F05DFC40F20D410746039833F028
:10C7700057FC1A49064620203CF0EDFBDDE9042376
:10C780008361174B9A4288BF012300F1040598BFCB
:10C79000B3FBF2F3044643613946284636F077FF8F
:10C7A00048B904F10C073146384636F070FF28B11D
:10C7B000284636F033FE204607B0F0BD0122114670
:10C7C000284636F0CBFF01221146384636F0C6FF28
:10C7D000204644F087FAEEE7ACA6080064E90700BB
:10C7E00020A10700F0B50C4687B054F8045B06465C
:10C7F0002846174636F09BFB284636F0A4FB02ABD2
:10C800000193094B00933A462146701E042314F00D
:10C810007DFD059B00932846DDE90323029943F043
:10C820002AFA0E2007B0F0BD8CA60800F0B50C4621
:10C8300087B054F8045B06462846174636F077FB67
:10C84000284636F080FB02AB01930A4B00933A4630
:10C850002146701E042314F059FD01230193059B0A
:10C8600000932846DDE90323029946F0F0F80E20F4
:10C8700007B0F0BD6CA60800F0B50C468BB054F8BC
:10C88000045B06462846174636F051FB284636F02C
:10C890005AFB03AB01930E4B00933A462146701EA0
:10C8A000072314F033FD00230193079B0093DDE978
:10C8B0000312069B284646F0CAF8099B00932846B7
:10C8C000089B059A039943F0D6F90E200BB0F0BDF2
:10C8D00034A60800F0B50D4687B055F8044B06465F
:10C8E0002046174636F023FB204636F032FB02ABDB
:10C8F0000193224B00933A462946701E042314F0FC
:10C9000005FD40F2AA3301220021039814F090FDA6
:10C9100040F2A133012200210546C7B2049814F069
:10C9200087FD4FF40973092208210646059814F083
:10C930007FFD0299124AB2FBF1F301FB132202B10F
:10C940000133E36194F82030C3F38002BA420BD084
:10C9500065F3820384F820307B1E59424FF00002B9
:10C960005941201D36F0FAFE94F820300E2066F36F
:10C97000C30384F8203007B0F0BD00BF04A708004F
:10C9800020A107002DE9F04186B0084611461A465D
:10C9900003AB0193354B009303233BF0D2F84FF4E4
:10C9A0001271039833F03CFB40F26A3180460498E0
:10C9B00033F042FB40F25E310546059833F03CFB14
:10C9C0002B49074624203CF0C0FA061D0446414688
:10C9D000304636F05CFE024620B14FF41271254815
